S0190000414D5F52544F535F4C6162335F5461736B732E733337A0
S11300000000042075030000A1030000A103000008
S1130010A1030000A1030000A1030000A10300004C
S1130020A1030000A1030000A1030000A10300003C
S1130030A1030000A00300007B9C000019AB00009A
S1130040A1030000A1030000A1030000A10300001C
S1130050A1030000A1030000A1030000A10300000C
S1130060A1030000A10300008BAE00005D050000A9
S1130070A1030000A1030000A1030000A1030000EC
S1130080A1030000A103000097AE0000A10300003B
S1130090A1030000A1030000A1030000A1030000CC
S11300A0A1030000A1030000A1030000A1030000BC
S11300B0A1030000A103000081AA0000A103000025
S11300C0A1030000A1030000A1030000A10300009C
S11300D0A1030000A1030000A1030000A10300008C
S11300E0A1030000A1030000A1030000A10300007C
S11300F0A1030000A1030000A1030000A10300006C
S1130100A1030000A1030000A103000010B5054CE9
S1130110237833B9044B13B10448AFF300800123AF
S1130120237010BD2401002000000000F4EE000044
S113013008B5034B1BB103490348AFF3008008BD66
S11301400000000028010020F4EE0000154B002BF5
S113015008BF134B9D46A3F5803A00218B460F46FA
S11301601348144A121A0BF0EEFA0F4B002B00D06E
S113017098470E4B002B00D0984700200021040024
S11301800D000D48002802D00C48AFF300800BF09E
S1130190ABFA200029000AF0C5FF0BF091FA00BF6A
S11301A0000008000000042000000000000000001F
S11301B024010020F0700020000000000000000076
S11301C080B582B000AF00F0EDF878600A4B1B6890
S11301D0094A43F080731360084B00221A60084BED
S11301E01B68074A43F001031360786802F058FF64
S11301F000BF0837BD4680BDFCED00E0041000E000
S1130200001000E080B483B000AF054B1B687B6036
S11302107B6818460C37BD465DF8047B704700BF09
S1130220041000E0B0B586B000AF786000F0BAF812
S113023003464FF00004C7E904347B681C464FF0C2
S11302400005D7E904010B4A4FF000030BF0B8F89E
S113025002460B46204629460BF0B2F803460C46EC
S1130260C7E90234D7E90234184621461837BD4697
S1130270B0BD00BF40420F0080B400AF044BDB6C44
S11302801B0EDBB21846BD465DF8047B704700BF09
S1130290B081E00F80B582B000AF194B01225A64DF
S11302A0FFF7EAFF0346FB71FB79002B0CD1154BDA
S11302B04AF6E8521A60144B1B68134A43F00403CD
S11302C01360104B00221A60FB79012B05D80F4BE9
S11302D01B680E4A43F4005313600D4B1B6A23F44E
S11302E044130B4A43F4881313620A4B1B68094AEC
S11302F043F4F843136000BF0837BD4680BD00BF18
S113030000000E4090310E4098310E4064310E4092
S113031000400E40A4310E4080B584B000AF1123DC
S1130320FB60FFF7B7FF104804F0F6FE0521F868FC
S113033003F00AFE01210D4803F0B6FA0123FB7213
S11303400323BB720A4B7B60BB7A1946786803F0BF
S1130350FBFDFB7A00220121184604F027F800BFB8
S11303601037BD4680BD00BF84B7000030253E0075
S113037005002400064880470649074A074B9A426D
S1130380BEBF51F8040B42F8040BF8E7FFF7DEFE9A
S11303909904000000EF0000000000202401002068
S11303A0FEE700BF80B582B000AF00F025F87860AA
S11303B00A4BD3F808311B0AC3F308033B603B68BC
S11303C001337A68B2FBF3F37B60054A7B68136000
S11303D07B6818460837BD4680BD00BF00400E400C
S11303E00800002080B400AF024B1846BD465DF8FB
S11303F0047B7047005A620280B483B000AF1C4B88
S1130400D3F8943003F00703023B032B1BD801A25B
S113041052F823F0350400002D04000025040000E8
S11304203D040000134B1B687B6010E04FF4004355
S11304307B600CE0104B1B687B6008E00F4B1B6873
S11304405B087B6003E00D4B1B687B6000BF084BBF
S1130450D3F800311B0A03F01F0301337A68B2FB9F
S1130460F3F318460C37BD465DF8047B704700BFB4
S113047000400E4004000020000000200C0000207A
S113048080B400AF034B1B681846BD465DF8047B7F
S1130490704700BF0000002080B400AF074B084A3B
S11304A09A60064BD3F88830044A43F47003C2F8C8
S11304B0883000BFBD465DF8047B704700ED00E066
S11304C00000000080B400AF4FF400431846BD465E
S11304D05DF8047B704780B400AF4FF47A7318461C
S11304E0BD465DF8047B704780B400AF034B1B68C6
S11304F01846BD465DF8047B704700BF0400002029
S113050080B483B000AF0346FB7197F90730002B2A
S11305100BDBFB7903F01F02074997F907305B09EE
S1130520012000FA02F241F8232000BF0C37BD4637
S11305305DF8047B704700BF00E100E080B400AFC9
S1130540054B1B69044A23F00403136130BF00BF49
S1130550BD465DF8047B704700ED00E080B483B0D5
S113056000AF174B02225A60164B02225A60144BFA
S113057001225A61134B5B6A7B60134B1B78DBB21D
S11305801946124A7B6842F821300F4B1B78DBB2C4
S11305901A460F4B53F822307A689A4207D90A4B0D
S11305A01B78DBB219460A4A7B6842F82130094BB2
S11305B001221A7000BF0C37BD465DF8047B7047FA
S11305C000800140008401404001002044010020DB
S11305D0540100204101002080B485B000AF0346DF
S11305E0FB71FB790D4A52F82330FB60FB790B4A0F
S11305F052F823309B08FA68D31AFB60FB79084A47
S113060052F82330FA689A4201D9012300E000230A
S113061018461437BD465DF8047B7047540100202A
S11306204401002080B582B000AF0346FB71FB7922
S113063019464FF0804002F0FBFD0F4B00225A6236
S11306400E4B00225A620E4B00221A700A4B0122F2
S11306505A600A4B01225A6001E0FFF76FFF084B12
S11306601B78DBB283F00103DBB2002BF5D100BFB2
S11306700837BD4680BD00BF0080014000840140B2
S11306804101002080B500AF4FF0804002F012FE1F
S11306900F4B00221A700FE00D4B1B78DBB21A4689
S11306A00C4B9B5C1846FFF7BDFF094B1B78DBB274
S11306B00133DAB2064B1A70054B1B78DBB2032BFD
S11306C0EAD94FF0804002F0D5FD00BF80BD00BFE5
S11306D04001002094B70000B0B586B000AF224BB3
S11306E03C461D460FCD0FC495E8030084E8030083
S11306F001211E4803F0D8F801211D4803F0D4F865
S113070001211C4803F0D0F801211B4803F0CCF868
S113071001214FF48A4003F0C7F8184B4FF01062E0
S11307201A60164B0A22DA61144B01229A61134BA8
S113073000225A62124B134A1A60114B4FF6FF7291
S1130740DA610F4B104A1A67104B114A1A653B467F
S113075019464FF0804002F00DFD0B20FFF7D0FE4C
S113076000BF1837BD46B0BD98B700004041050032
S1130770000204000012040000A2040000800140F2
S1130780008401400000010A0100002A00600E40BC
S11307900003100080B582B000AF1F4B7B607B6804
S11307A002221A617B6802225A617B681B4A9A61A1
S11307B07B681B4ADA617B684FF480621A627B684B
S11307C000229A627B6800225A627B680022DA6205
S11307D07B68124A9A647B68124ADA647B68102246
S11307E01A657B6800229A657B6800225A657B68DB
S11307F00022DA657B6807330B4918460AF0ABFF21
S11308007B680A4918460AF0A6FF7B6820229A7181
S113081000BF0837BD4680BD7C4A0020B0B7000049
S11308206401002064050020BCB70000C0B70000CC
S113083080B58AB000AFF860B9607A603C4B1B7831
S1130840002B01D1FFF7A6FFFA6813465B0013449F
S1130850DB004833364A1344BB61BB68FB61BB69A8
S11308601B693B62BB69DB687B6100237B623A6A7C
S11308707B699A422AD9BB699A683B6AD31A3B615D
S11308803A697B68934228BF13463B61BB695A6847
S11308903B6A13443A691946F8690AF049FF7A6ACF
S11308A03B6913447B62FA693B691344FB617A68D0
S11308B03B69D31A7B603A6A3B6913443B62BB6968
S11308C09B683A6A9A4201D100233B627A693B6A87
S11308D0D31A3B613A697B68934228BF13463B6154
S11308E03B69002B18D0BB695A683B6A13443A69C8
S11308F01946F8690AF01CFF7A6A3B6913447B6263
S1130900FA693B691344FB617A683B69D31A7B60DB
S11309103A6A3B6913443B627B6A002B02D0BB6991
S11309203A6A1A617B6A18462837BD4680BD00BF03
S11309307C4A002080B586B000AFF860B9607A6068
S11309403B602E4B1B78002B01D1FFF723FF2B4B71
S11309501B691A46FB68934248D203F079FF386159
S1130960FB68002B32D02549FB685A1C13465B00F8
S11309701344DB000B44BA681A602049FB685A1C14
S113098013465B001344DB000B4404337A681A609B
S11309901A49FA6813465B001344DB000B44203306
S11309A03A681A601549FA6813465B001344DB0081
S11309B00B44283300221A601049FA6813465B007E
S11309C01344DB000B44243300221A600B49FA68F9
S11309D013465B001344DB000B442C333A6A1A6061
S11309E0386903F045FF00237B6102E04FF0FF33D9
S11309F07B617B6918461837BD4680BD7C4A002060
S1130A0080B586B000AFF860B9607A603B602E4B69
S1130A101B78002B01D1FFF7BDFE2B4B5B691A46F7
S1130A20FB68934247D203F013FF3861FB68002B45
S1130A3031D02549FA6813465B001344DB000B44AC
S1130A404833BA681A602049FA6813465B001344B5
S1130A50DB000B444C337A681A601B49FA6813466E
S1130A605B001344DB000B4450333A681A601649A8
S1130A70FA6813465B001344DB000B44583300222E
S1130A801A601149FA6813465B001344DB000B44F7
S1130A90543300221A600C49FA6813465B0013446D
S1130AA0DB000B445C333A6A1A60386903F0E0FEF9
S1130AB000237B6102E04FF0FF337B617B691846C2
S1130AC01837BD4680BD00BF7C4A0020F0B400EB5F
S1130AD04003DFF8800000EBC30000F11806306922
S1130AE0F768756887422ED3B368DC1B631E934294
S1130AF012D37D19D01900BF11F8013B05F8013B51
S1130B00013A05D011F8013B05F8013B013AF3D154
S1130B10F0600120F0BC7047C018904217D37819D8
S1130B20121B11F8013B00F8013B013CF9D1141CE4
S1130B3005D011F8013B05F8013B013AF9D1F46005
S1130B400120F0BC7047C01B01389042D1D2002074
S1130B50F0BC70477C4A002080B487B000AFF860D6
S1130B60B9607A6000233B6102E03B6901333B6179
S1130B70BA683B6913441B78002BF6D13A697B6849
S1130B809A4201D97B683B613B69FE2B06D8FB681E
S1130B905A1CFA603A69D2B21A7011E0FB685A1C06
S1130BA0FA60FF221A70FB685A1CFA603A69D2B2E2
S1130BB01A703B69190AFB685A1CFA60CAB21A70A7
S1130BC000237B610AE0BA68531CBB60FB68591CB4
S1130BD0F96012781A707B6901337B617A693B6929
S1130BE09A42F0D3FB6818461C37BD465DF8047B77
S1130BF0704780B483B000AF78607B6804331846D4
S1130C000C37BD465DF8047B704780B582B000AFF9
S1130C10FB1C012219460120FFF70AFE03467B60F4
S1130C207B68002B44DDFB78042B1AD0042B06DCF4
S1130C30022B10D0022B11DC012B09D02DE0062B46
S1130C4015D0062B10DB072B14D0802B15D024E0F5
S1130C5000F07CFA31E000F02DFB2EE000F0F8FC0F
S1130C602BE000F0C1FC28E000F046FB25E000F09A
S1130C7043FF22E000F022FF1FE0FB1C0122194683
S1130C800120FFF7D5FD03467B607B68002B11DD57
S1130C90FB78184600F096FE0CE0FB785BB2002B64
S1130CA00ADAFB1C012219460120FFF7C1FD03E00B
S1130CB000BF02E000BF00E000BF00BF0837BD4630
S1130CC080BD000080B58CB000AF01233B713B1D9B
S1130CD00133FB61FB69FB62334B5B69BB620BE075
S1130CE0BB6ADAB2FB6A591CF96262F07F02D2B2C3
S1130CF01A70BB6ADB09BB62BB6A7F2BF0D8FB6A44
S1130D005A1CFA62BA6AD2B21A70FB6AFB61274BA8
S1130D101B68BB61244BDB68BA69D31A7B617B69AE
S1130D201B017B617B691B117B61FB697B627B69B6
S1130D303B620BE03B6ADAB27B6A591C796262F06F
S1130D407F02D2B21A703B6ADB093B623B6A7F2B9B
S1130D50F0D87B6A5A1C7A623A6AD2B21A707B6AF9
S1130D60FB61FA693B1DD31A1A463B1D1946012043
S1130D70FFF7ACFE03463B613B69002B09D00A4AEE
S1130D80BB69D360084B1B78013BDAB2064B1A707F
S1130D9004E0054B5B690133034A53613B69184620
S1130DA03037BD4680BD00BF7C150020041000E034
S1130DB080B58AB000AFF860B9607A60654B1B7883
S1130DC0012B10D0634B1B78002B00F0A780614BE4
S1130DD01B78022B09D1FFF775FF5E4B1B78012BA3
S1130DE040F09E8001E000BF00E000BF7B681F2B45
S1130DF009D8584BDA697B6822FA03F303F001033C
S1130E00002B40F08F807B68172B07D8FB68013BD1
S1130E10FB607B68DAB2FB681A703DE0BA68FB6875
S1130E20D31AFB61FB697F2B12D9FB69DA09FB68D2
S1130E30013BFB60D2B2FB681A70FB69DBB2FA6853
S1130E40013AFA6063F07F03DAB2FB681A7006E0D5
S1130E50FB68013BFB60FB69DAB2FB681A707B68D4
S1130E607F2B12D97B68DA09FB68013BFB60D2B2A5
S1130E70FB681A707B68DBB2FA68013AFA6063F0C7
S1130E807F03DAB2FB681A7006E0FB68013BFB6083
S1130E907B68DAB2FB681A702F4B1B68BB612D4B61
S1130EA0DB68BA69D31A7B617B691B017B617B694F
S1130EB01B097B61BB687B627B693B620BE03B6A1D
S1130EC0DAB27B6A591C796262F07F02D2B21A707C
S1130ED03B6ADB093B623B6A7F2BF0D87B6A5A1C76
S1130EE07A623A6AD2B21A707B6ABB60BA68FB68EB
S1130EF0D31A1A46F9680120FFF7E8FD03463B615F
S1130F003B69002B03D0134ABB69D3600BE0114B40
S1130F101B780133DAB20F4B1A7004E000BF02E011
S1130F2000BF00E000BF0D4BDA6E0C4B1B6F9A4202
S1130F300BD0084B9B78002B07D1064B01229A70EB
S1130F40FFF763FE034B00229A7000BF2837BD46AB
S1130F5080BD00BF7C150020041000E07C4A002006
S1130F6080B586B002AFF860B9607A603B60002358
S1130F7000934FF48053144A14490120FFF7DAFC1C
S1130F80002300930823124A10490120FFF738FD7B
S1130F90104B4FF080521A610F4B1B680D4AD360FF
S1130FA00C4A7B6813620B4AFB685360094ABB68AE
S1130FB09360084A3B685362064B00221A7000BFD4
S1130FC01037BD4680BD00BF74050020D4B70000B3
S1130FD0741500207C150020041000E080B483B058
S1130FE000AF7860044A7B68136100BF0C37BD46CC
S1130FF05DF8047B704700BF7C15002080B584B089
S113100000AF786003F024FCF8600848FFF7F1FDB6
S1131010B8607A68B968B868FFF7CAFEF86803F080
S113102027FC00BF1037BD4680BD00BFAC150020B3
S113103080B588B000AF7860396003F009FC78614E
S11310401648FFF7D6FD38613B69FB60FB68FB611E
S11310503B68BB610BE0BB69DAB2FB69591CF961FF
S113106062F07F02D2B21A70BB69DB09BB61BB6953
S11310707F2BF0D8FB695A1CFA61BA69D2B21A7094
S1131080FB69FB607A68F9683869FFF791FE786953
S113109003F0EEFB00BF2037BD4680BDAC15002039
S11310A080B58CB000AFF860B9607A6003F0D0FB13
S11310B0F8612548FFF79DFDB861BB697B617B69D9
S11310C0FB62BB68BB620BE0BB6ADAB2FB6A591C09
S11310D0F96262F07F02D2B21A70BB6ADB09BB62AA
S11310E0BB6A7F2BF0D8FB6A5A1CFA62BA6AD2B286
S11310F01A70FB6A7B617B697B627B683B620BE0F5
S11311003B6ADAB27B6A591C796262F07F02D2B21E
S11311101A703B6ADB093B623B6A7F2BF0D87B6A1F
S11311205A1C7A623A6AD2B21A707B6A7B61FA6894
S11311307969B869FFF73CFEF86903F099FB00BFD1
S11311403037BD4680BD00BFAC15002080B58CB0E3
S113115000AF554B1B78002B40F0A280524B01226C
S11311601A7003F075FBF8600A2250490120FFF75A
S1131170ADFCF86803F07CFB0A20FFF73FFF03F0A7
S113118067FBB8604A48FFF734FD78607B683B60D2
S11311903B68FB62444B5B68BB620BE0BB6ADAB240
S11311A0FB6A591CF96262F07F02D2B21A70BB6A00
S11311B0DB09BB62BB6A7F2BF0D8FB6A5A1CFA625C
S11311C0BA6AD2B21A70FB6A3B603B687B62364BE8
S11311D09B683B620BE03B6ADAB27B6A591C79621A
S11311E062F07F02D2B21A703B6ADB093B623B6A4F
S11311F07F2BF0D87B6A5A1C7A623A6AD2B21A7090
S11312007B6A3B603B68FB61274B1B69BB610BE05E
S1131210BB69DAB2FB69591CF96162F07F02D2B290
S11312201A70BB69DB09BB61BB697F2BF0D8FB6912
S11312305A1CFA61BA69D2B21A70FB693B603B6806
S11312407B6102233B610BE03B69DAB27B69591C89
S1131250796162F07F02D2B21A703B69DB093B61AB
S11312603B697F2BF0D87B695A1C7A613A69D2B208
S11312701A707B693B60182239687868FFF798FD1B
S1131280B86803F0F5FA084B5B6A002B02D0064BF2
S11312905B6A984700F0DCF900F0A6F900F02CFC3A
S11312A000BF3037BD4680BD7C150020C8B70000A4
S11312B0AC15002080B582B000AF03F0C9FA7860A5
S11312C00B48FFF796FC38600A4B1B78002B07D0BD
S11312D00B2239683868FFF76BFD064B00221A7041
S11312E0786803F0C5FA00BF0837BD4680BD00BF6B
S11312F0AC1500207C15002080B58CB000AF03F045
S1131300A7FAF8604548FFF774FCB860BB687B60D7
S11313107B68FB62424B5B68BB620BE0BB6ADAB280
S1131320FB6A591CF96262F07F02D2B21A70BB6A7E
S1131330DB09BB62BB6A7F2BF0D8FB6A5A1CFA62DA
S1131340BA6AD2B21A70FB6A7B607B687B62344BE8
S11313509B683B620BE03B6ADAB27B6A591C796298
S113136062F07F02D2B21A703B6ADB093B623B6ACD
S11313707F2BF0D87B6A5A1C7A623A6AD2B21A700E
S11313807B6A7B607B68FB61254B1B69BB610BE05F
S1131390BB69DAB2FB69591CF96162F07F02D2B20F
S11313A01A70BB69DB09BB61BB697F2BF0D8FB6991
S11313B05A1CFA61BA69D2B21A70FB697B607B6805
S11313C07B6102233B610BE03B69DAB27B69591C08
S11313D0796162F07F02D2B21A703B69DB093B612A
S11313E03B697F2BF0D87B695A1C7A613A69D2B287
S11313F01A707B697B6018227968B868FFF7D8FC9B
S1131400F86803F035FA064B5B6A002B02D0044BF4
S11314105B6A984700BF3037BD4680BDAC150020DD
S11314207C15002080B592B000AF786003F010FA0C
S113143078616B48FFF7DDFB38613B69FB60FB6853
S11314407B647B681A68674B1B69D31A9B083B64EF
S11314500BE03B6CDAB27B6C591C796462F07F025E
S1131460D2B21A703B6CDB093B643B6C7F2BF0D827
S11314707B6C5A1C7A643A6CD2B21A707B6CFB6037
S1131480FB68FB637B689B68BB630BE0BB6BDAB2F6
S1131490FB6B591CF96362F07F02D2B21A70BB6B0A
S11314A0DB09BB63BB6B7F2BF0D8FB6B5A1CFA6365
S11314B0BA6BD2B21A70FB6BFB607B685B6820224C
S11314C01946F868FFF748FBF8600922F96838699B
S11314D0FFF76EFC3B69FB60FB687B637B681A6803
S11314E0404B1B69D31A9B083B630BE03B6BDAB29E
S11314F07B6B591C796362F07F02D2B21A703B6B2A
S1131500DB093B633B6B7F2BF0D87B6B5A1C7A6304
S11315103A6BD2B21A707B6BFB60FB68FB627B6830
S1131520DB68BB620BE0BB6ADAB2FB6A591CF96286
S113153062F07F02D2B21A70BB6ADB09BB62BB6A7B
S11315407F2BF0D8FB6A5A1CFA62BA6AD2B21A70BC
S1131550FB6AFB60FB687B627B681B693B620BE098
S11315603B6ADAB27B6A591C796262F07F02D2B2BA
S11315701A703B6ADB093B623B6A7F2BF0D87B6ABB
S11315805A1C7A623A6AD2B21A707B6AFB60FB68B0
S1131590FB610023BB610BE0BB69DAB2FB69591C38
S11315A0F96162F07F02D2B21A70BB69DB09BB61D8
S11315B0BB697F2BF0D8FB695A1CFA61BA69D2B2B5
S11315C01A70FB69FB601522F9683869FFF7F0FBB4
S11315D0786903F04DF900BF4837BD4680BD00BFB0
S11315E0AC1500207C15002080B500AF074B1B6AAA
S11315F0002B08D0054B1B6A5B68002B03D0034B00
S11316001B6A5B68984700BF80BD00BF7C15002043
S113161080B586B000AF786003F01AF978610B48A2
S1131620FFF7E7FA3861802279683869FFF794FA9E
S1131630F8600E22F9683869FFF7BAFB786903F09D
S113164017F900BF1837BD4680BD00BFAC15002098
S113165090B583B000AF144B1B6A002B19D0124B0A
S11316601B6A1B68002B14D00F4B1B6A1B6898471E
S1131670C7E900013868D7E900124FF000034FF0C2
S11316800004130000241A4601460D20FFF708FD4C
S113169005E0064B1B6819460C20FFF7C9FC00BF88
S11316A00C37BD4690BD00BF7C150020041000E03F
S11316B080B582B000AF03F0CBF878600748FFF73D
S11316C098FA3860112239683868FFF771FB786836
S11316D003F0CEF800BF0837BD4680BDAC1500202E
S11316E080B588B000AF786003F0B2F878611A482A
S11316F0FFF77FFA38613B69FB60184B1B697A6816
S1131700D31A9B087B60FB68FB617B68BB610BE0C1
S1131710BB69DAB2FB69591CF96162F07F02D2B28B
S11317201A70BB69DB09BB61BB697F2BF0D8FB690D
S11317305A1CFA61BA69D2B21A70FB69FB600822BA
S1131740F9683869FFF734FB786903F091F800BF52
S11317502037BD4680BD00BFAC1500207C1500209D
S113176080B588B000AF786003F072F878611A48E9
S1131770FFF73FFA38613B69FB60184B1B697A68D5
S1131780D31A9B087B60FB68FB617B68BB610BE041
S1131790BB69DAB2FB69591CF96162F07F02D2B20B
S11317A01A70BB69DB09BB61BB697F2BF0D8FB698D
S11317B05A1CFA61BA69D2B21A70FB69FB6004223E
S11317C0F9683869FFF7F4FA786903F051F800BF53
S11317D02037BD4680BD00BFAC1500207C1500201D
S11317E080B588B000AF786003F032F878611A48A9
S11317F0FFF7FFF938613B69FB60184B1B697A6896
S1131800D31A9B087B60FB68FB617B68BB610BE0C0
S1131810BB69DAB2FB69591CF96162F07F02D2B28A
S11318201A70BB69DB09BB61BB697F2BF0D8FB690C
S11318305A1CFA61BA69D2B21A70FB69FB600622BB
S1131840F9683869FFF7B4FA786903F011F800BF52
S11318502037BD4680BD00BFAC1500207C1500209C
S113186080B58AB000AF7860396002F0F1FF78612A
S11318702748FFF7BEF938613B69FB60254B1B69BC
S11318807A68D31A9B087B60FB687B627B683B6247
S11318900BE03B6ADAB27B6A591C796262F07F0220
S11318A0D2B21A703B6ADB093B623B6A7F2BF0D8E9
S11318B07B6A5A1C7A623A6AD2B21A707B6AFB60FB
S11318C0FB68FB613B68BB610BE0BB69DAB2FB6997
S11318D0591CF96162F07F02D2B21A70BB69DB094C
S11318E0BB61BB697F2BF0D8FB695A1CFA61BA69EA
S11318F0D2B21A70FB69FB600722F9683869FFF7F6
S113190057FA786902F0B4FF00BF2837BD4680BD9E
S1131910AC1500207C15002080B588B000AF78603D
S1131920396002F095FF78611B48FFF762F938616E
S11319303B69FB60FB68FB61184B1B697A68D31A2F
S11319409B08BB610BE0BB69DAB2FB69591CF96106
S113195062F07F02D2B21A70BB69DB09BB61BB695A
S11319607F2BF0D8FB695A1CFA61BA69D2B21A709B
S1131970FB69FB6080223968F868FFF7EDF8F860CE
S11319801922F9683869FFF713FA786902F070FFD1
S113199000BF2037BD4680BDAC1500207C1500205B
S11319A080B483B000AF7860054B1B697A68D31AA2
S11319B09B0818460C37BD465DF8047B704700BF92
S11319C07C15002080B58CB000AF0346FB71394B09
S11319D01B68002B69D0374B1B68FB620023BB627A
S11319E008E0FB6A1B69FB62FB6A002B07D0BB6A39
S11319F00133BB62FB79BA6A9A42F2D300E000BFBA
S1131A00FB6A002B51D002F023FF78612A48FFF7CC
S1131A10F0F838613B69FB60FB687B62FB793B62F1
S1131A200BE03B6ADAB27B6A591C796262F07F028E
S1131A30D2B21A703B6ADB093B623B6A7F2BF0D857
S1131A407B6A5A1C7A623A6AD2B21A707B6AFB6069
S1131A50FB68FB61FB6A9B68BB610BE0BB69DAB2A4
S1131A60FB69591CF96162F07F02D2B21A70BB693A
S1131A70DB09BB61BB697F2BF0D8FB695A1CFA6197
S1131A80BA69D2B21A70FB69FB60FB6A1B688022D8
S1131A901946F868FFF760F8F8601622F9683869A3
S1131AA0FFF786F9786902F0E3FE00BF3037BD46E0
S1131AB080BD00BFA4150020AC15002080B582B005
S1131AC000AF0C4B1B68002B0FD00A4B1B687B60CC
S1131AD07B68DB68002B02D07B68DB6898477B68F7
S1131AE01B697B607B68002BF2D100BF0837BD46C1
S1131AF080BD00BFA415002080B586B000AF02F001
S1131B00A7FEF8601748FFF774F8B860BB687B60FD
S1131B107B687B61144B1B783B610BE03B69DAB259
S1131B207B69591C796162F07F02D2B21A703B69F9
S1131B30DB093B613B697F2BF0D87B695A1C7A61D6
S1131B403A69D2B21A707B697B601B227968B868E3
S1131B50FFF72EF9F86802F08BFE00BF1837BD4678
S1131B6080BD00BFAC150020A815002080B58AB048
S1131B7000AF786002F06CFE78612748FFF739F80F
S1131B803861802279683869FEF7E6FFF860FB68FF
S1131B907B6201233B620BE03B6ADAB27B6A591C2D
S1131BA0796262F07F02D2B21A703B6ADB093B624F
S1131BB03B6A7F2BF0D87B6A5A1C7A623A6AD2B2AB
S1131BC01A707B6AFB60FB68FB610023BB610BE05E
S1131BD0BB69DAB2FB69591CF96162F07F02D2B2C7
S1131BE01A70BB69DB09BB61BB697F2BF0D8FB6949
S1131BF05A1CFA61BA69D2B21A70FB69FB601A22E4
S1131C00F9683869FFF7D4F8786902F031FE00BF4B
S1131C102837BD4680BD00BFAC15002080B500AF9D
S1131C200448FFF7F5FC0448FFF7F2FC00F07CF9E8
S1131C3000BF80BDDCB700000CB8000098B500AF51
S1131C40094801F0E9F90446074801F0E5F90146BD
S1131C50064B074A2046FFF783F94FF00050FFF781
S1131C60BDF900BF98BD00BFF44A00201D1C000050
S1131C70C4B80000F0B585B002AF00237B6035E046
S1131C801F497A6813469B0013449B000B44186851
S1131C901B497A6813469B0013449B000B4404338E
S1131CA01C6817497A6813469B0013449B000B4435
S1131CB008331D6812497A6813469B0013449B003D
S1131CC00B440C331B681E460D497A6813469B006F
S1131CD013449B000B4410331B68009333462A467D
S1131CE0214600F0B7F87B6801337B60054B1B6825
S1131CF07A689A42C4D300BF0C37BD46F0BD00BF1A
S1131D00901600201019002090B585B000AF01F0A6
S1131D1078F9F860F868FEF785FAC7E90001D7E9B1
S1131D200034184621461437BD4690BD80B582B0B4
S1131D3000AF786004F0EEFC0346002B02D1786813
S1131D40FFF74EFD00BF0837BD4680BD80B582B0A9
S1131D5000AF786004F0DEFC0346002B02D1786803
S1131D60FFF7FEFC00BF0837BD4680BD80B582B0DA
S1131D7000AF786004F0CEFC0346002B03D10421AD
S1131D807868FFF76DFD00BF0837BD4680BD0000D1
S1131D9080B586B002AFF860B9607A603B6004F049
S1131DA0B9FC0346002B4BD1274B1B681F2B03D9CF
S1131DB02648FFF7DBFE43E0234B1A682449134609
S1131DC09B0013449B000B44FA681A601E4B1A686C
S1131DD01F4913469B0013449B000B440433BA6809
S1131DE01A60194B1A681A4913469B0013449B0046
S1131DF00B4408337A681A60134B1A681449134663
S1131E009B0013449B000B440C333A681A600E4B3E
S1131E101A680F4913469B0013449B000B4410336C
S1131E20BA691A60084B1B680133074A13603A68A1
S1131E30BB69009313467A68B968F86800F00AF839
S1131E401037BD4680BD00BF1019002020B8000027
S1131E509016002080B58AB000AFF860B9607A604F
S1131E603B6007F1140314220021184609F06BFCAF
S1131E70FB687B61BB68BB617B68FB613B683B6261
S1131E803B6B7B6207F114031846FFF7CBFA00BFE4
S1131E902837BD4680BD000080B584B000AFF8602F
S1131EA0B9607A607968B868FFF736FDB868FFF7FB
S1131EB077FD03461946F868FFF7BAF8174B1B6815
S1131EC0FF2B03D91648FFF751FE24E0134B1A6881
S1131ED0144913465B0013449B000B44BA681A6010
S1131EE00E4B1A680F4913465B0013449B000B44C6
S1131EF004337A681A60094B1A680A4913465B006E
S1131F0013449B000B44083300221A60034B1B68E4
S1131F100133024A13601037BD4680BD14250020EA
S1131F2070B800001419002080B582B000AF0023FF
S1131F307B602BE01A497A6813465B0013449B00CC
S1131F400B4408331B68002B1DD115497A681346CE
S1131F505B0013449B000B44186811497A681346CC
S1131F605B0013449B000B4404331B681946FFF7C2
S1131F70D3FC0B497A6813465B0013449B000B4463
S1131F80083301221A607B6801337B60054B1B68B0
S1131F907A689A42CED300BF0837BD4680BD00BFE1
S1131FA0141900201425002080B483B000AF786099
S1131FB07B6800221A6000BF0C37BD465DF8047BC5
S1131FC07047000080B582B000AF7860144B0122E6
S1131FD01A707B68002B01D101F010F87B68002295
S1131FE01A70104B1A687B685A600F4B1A687B682A
S1131FF09A607B680D4ADA607B68B7221A617B6855
S11320000B4A5A6100F0F6F900F0ECF9786800F038
S11320104BFF7B681B78002B0837BD4680BD00BF93
S113202018250020B0DF0000FCE10000CCB800005F
S113203048B9000080B400AF034B1B681846BD4686
S11320405DF8047B704700BF1C25002080B485B078
S113205000AF03460A46FB711346BB710023FB73B2
S1132060FB79162B63D801A252F823F0C920000093
S1132070CF200000D5200000D5200000D52000008E
S1132080DB200000E1200000E1200000E12000004E
S1132090E7200000ED200000F3200000F9200000FC
S11320A0FF200000FF200000FF200000112100009D
S11320B0172100001D21000023210000052100003C
S11320C00B210000292100000123FB7330E00123D0
S11320D0FB732DE00123FB732AE00123FB7327E04C
S11320E00123FB7324E00123FB7321E00123FB7331
S11320F01EE00123FB731BE00123FB7318E00123A3
S1132100FB7315E00123FB7312E00123FB730FE063
S11321100123FB730CE00123FB7309E00123FB7330
S113212006E00123FB7303E00123FB7300E000BF1F
S1132130FB7B18461437BD465DF8047B704700BF2F
S113214080B58EB000AFF860B9607A600023FB629E
S11321507B68002B01D100F051FF274B1B68002B3B
S113216008D1786800F04AF87B681B78002B01D00E
S1132170FB6A3DE0204B1B687968184600F042FA80
S113218038637B681B78002B01D0FB6A30E03B6B23
S11321907A68F968184605F027FA7B681B78002BE3
S11321A017D1BB68002B09D0BB681B7803F001036F
S11321B0002B03D0012387F8373002E0002387F88F
S11321C037303B6B97F8372083F834203B6BFB6246
S11321D00DE0094B1B68184607F114031A46396BC6
S11321E000F006FB3B7D002B01D000F007FFFB6AEB
S11321F018463837BD4680BD2025002080B588B0FC
S113220004AF78607B68002B01D100F0F7FE7B6897
S113221000221A705E4B1A687B685A605D4B1A681C
S11322207B689A607B685C4ADA607B684FF40D6275
S11322301A617B68594A5A61786804F095F87B689A
S11322401B78002B03D0786804F018F99DE0544BF8
S11322501B68002B40F09580FFF7ECFEF8607B686C
S1132260B422F9684F4800F053F902464C4B1A6007
S11322707B681B78002B03D0786804F0FFF884E0B7
S1132280474B1B6819467B6803934FF0FF33029357
S113229000230193042300933823FA68424800F092
S11322A05FF97B681B78002B03D0786804F0E6F8AC
S11322B06BE03B4B1B6803F124017B6803934FF0F5
S11322C0FF33029300230193042300932C23FA6821
S11322D0364800F045F97B681B78002B03D07868FA
S11322E004F0CCF851E02E4B1B6803F16C017B68C1
S11322F003934FF0FF3302930023019304230093CD
S11323003823FA682A4800F02BF97B681B78002BE5
S113231003D0786804F0B2F837E0214B1B6803F16E
S113232090017B6803934FF0FF33029300230193E2
S1132330042300930123FA681E4800F011F97B6816
S11323401B78002B03D0786804F098F81DE0144B38
S11323501B6803F148017B6803934FF0FF3302933A
S113236000230193042300932423FA68124800F005
S1132370F7F87B681B78002B03D0786804F07EF8AC
S113238003E0786804F07AF800BF1037BD4680BDDA
S1132390B0DF0000FCE1000054B900005CBA0000AA
S11323A020250020F4B9000008BA000018BA000083
S11323B028BA000038BA00004CBA000080B584B0D6
S11323C000AF786002F062FAF860054A7B68136037
S11323D0F86802F06BFA00BF1037BD4680BD00BF3D
S11323E02425002080B500AF0120FFF7E7FF00BFE0
S11323F080BD000080B586B000AF3B461946064854
S113240000F00CF83B78002B01D000F0F7FD00BF82
S11324101837BD4680BD00BF1000002080B584B0D1
S113242000AF786039603B68002B01D100F0E6FD15
S11324307B68002B15D13B680A221A702F4B9A6ACD
S11324403B685A602E4B9A6A3B689A603B682D4AF7
S1132450DA603B6840F2B9221A613B682A4A5A6141
S1132460FEE702F013FAB860284B1B68FB601FE01C
S1132470FA687B689A4218D1B86802F017FA3B6888
S113248015221A701D4B5A6D3B685A601C4B5A6DCD
S11324903B689A603B681B4ADA603B684FF43072D1
S11324A01A613B68184A5A6124E0FB68DB68FB60E8
S11324B0FB68002BDCD1154B1A687B68DA60134A81
S11324C07B681360B86802F0F1F93B6800221A7067
S11324D00A4B1A683B685A60094B1A683B689A6051
S11324E03B68084ADA603B6840F2CB221A613B68D9
S11324F0054A5A611037BD4680BD00BFB0DF0000F9
S1132500FCE1000068BA0000E4BA00000C4B0020B3
S113251080B58AB004AFF860B9607A603B60BB688C
S11325207B613B68002B01D100F068FD7B69002BC7
S113253001D10A4B7B613B68029300230193012381
S1132540009304237A687969F86800F0F1F9386136
S11325503B6918461837BD4680BD00BF10000020F7
S113256080B58AB004AFF860B9607A603B607B687C
S11325707B61FB6A002B01D100F040FDBB68002B9E
S113258015D1FB6A0A221A70194B9A6AFB6A5A60BF
S1132590184B9A6AFB6A9A60FB6A174ADA60FB6A0C
S11325A040F214421A61FB6A144A5A61FEE77B69DD
S11325B0002B01D1124B7B61BB6800221A70BB68EF
S11325C00022DA61BB6800221A62FB6A0393BB6AC9
S11325D002937B6A01933B6A00933B687A69B9680A
S11325E0F86800F0B9FA00BF1837BD4680BD00BFD7
S11325F0B0DF0000FCE1000068BA0000F0BA00009F
S11326001000002090B58BB004AF786039603B684F
S1132610002B01D100F0F2FC7B68002B15D13B6844
S11326200A221A706E4B9A6A3B685A606D4B9A6A1A
S11326303B689A603B686C4ADA603B6840F2D74278
S11326401A613B68694A5A61FEE702F01FF9786132
S11326507B685B69B3F1FF3F1FD07B689A697B6835
S11326605B699A4219D3786902F020F93B68182211
S11326701A705B4B1A6E3B685A605A4B1A6E3B6871
S11326809A603B68584ADA603B6840F2E2421A6159
S11326903B68564A5A6100239DE07B689B695A1C3B
S11326A07B689A617B681B69002B2DD07B681B6952
S11326B0FB607B681B7803F00203002B02D1FB68EC
S11326C01B6805E07B689B68043BFA6813441B683D
S11326D07A681361786902F0E9F83B6800221A709D
S11326E03F4B1A683B685A603E4B1A683B689A60D5
S11326F03B683D4ADA603B6840F2F1421A613B684C
S11327003A4A5A61FB6866E0786902F0CFF8002320
S11327103B617B6859687B6898687B68DC687B6888
S11327201B7803F00103002B03D07B685B681B69F3
S113273000E001233A6802920022019200932346AA
S11327400246386900F0F4F8F8603B681B78002B07
S11327500CD002F09BF878617B689B695A1E7B68F9
S11327609A61786902F0A2F8002334E07B68DB699F
S1132770002B2FD07B68DC697B6859687B681B6AF7
S1132780FA687868A0470346FB72FB7A012B21D0D4
S113279002F07CF878617B689B695A1E7B689A61B9
S11327A0786902F083F83B681A221A700C4B9A6E0F
S11327B03B685A600B4B9A6E3B689A603B680A4AC6
S11327C0DA603B6840F21B521A613B68074A5A615F
S11327D0002300E0FB6818461C37BD4690BD00BFCF
S11327E0B0DF0000FCE1000068BA000004BB000098
S11327F080B586B000AFF860B9607A607B68002B62
S113280001D100F0FBFBFB68002B15D17B680A2289
S11328101A70434B9A6A7B685A60424B9A6A7B6887
S11328209A607B68404ADA607B6840F23D521A61E4
S11328307B683E4A5A61FEE7BB68002B15D17B6872
S11328400A221A70364B9A6A7B685A60354B9A6A28
S11328507B689A607B68344ADA607B6840F23E5257
S11328601A617B68314A5A61FEE702F00FF8786119
S1132870FB689B69002B18D1786902F017F87B6814
S113288017221A70264BDA6D7B685A60254BDA6D75
S11328907B689A607B68244ADA607B6840F247521E
S11328A01A617B68214A5A6137E0FB689B695A1EAA
S11328B0FB689A61786901F0F9FFFB681B7803F003
S11328C00203002B05D0FB689B68043BBA681344E1
S11328D000E0BB683B6101F0D9FF7861FB681A69CD
S11328E03B691A60FB68BA681A61786901F0DEFF17
S11328F07B6800221A700A4B1A687B685A60094B7D
S11329001A687B689A607B68074ADA607B6840F2E1
S113291057521A617B68054A5A611837BD4680BD13
S1132920B0DF0000FCE1000068BA000018BB000042
S113293080B588B002AFF860B9607A603B607B68AC
S1132940002B15D1BB6A08221A70374B1A6ABB6A6E
S11329505A60364B1A6ABB6A9A60BB6A344ADA60B8
S1132960BB6A4FF4D9621A61BB6A324A5A61FEE704
S11329703B68002B05D03B685A1E3B681340002B74
S113298002D03B68002B01D1012300E00023002B7F
S113299015D1BB6A08221A70234B1A6ABB6A5A60A3
S11329A0224B1A6ABB6A9A60BB6A214ADA60BB6A24
S11329B040F2CC621A61BB6A1E4A5A61FEE701F01A
S11329C065FF7861BB6A01937B6A00933B6A3A684E
S11329D07968B86800F030F83861BB6A1B78002B5E
S11329E019D0786901F062FFBB6A16221A700E4B87
S11329F09A6DBB6A5A600D4B9A6DBB6A9A60BB6A4A
S1132A000B4ADA60BB6A40F2D7621A61BB6A094AB0
S1132A105A61002303E0786901F048FF3B691846D6
S1132A201837BD4680BD00BFB0DF0000FCE10000E8
S1132A3068BA00002CBB000080B48BB000AFF86013
S1132A40B9607A603B607B68002B01D07B6800E052
S1132A5004233A68934238BF13467B62FB689B6841
S1132A601A467B6A5B421A40FB689B6819467B6A7C
S1132A70013B0B40002B01D07B6A00E00023134490
S1132A803B623A6ABB681A443B685B421A40396A43
S1132A90BB6819443B68013B0B40002B01D03B68E9
S1132AA000E000231344FB61FB685B681A46FB6883
S1132AB09B68D31A0133BB61FB689B681A46FB69A8
S1132AC09B1A7B61BA697B699A421ED23B6B002BCD
S1132AD004D07A69BB69D21A3B6B1A607B6B1622ED
S1132AE01A70194B9A6D7B6B5A60184B9A6D7B6BFD
S1132AF09A607B6B164ADA607B6B40F222721A6131
S1132B007B6B144A5A61002318E0FA69FB689A60E7
S1132B107B6B00221A700C4B1A687B6B5A600B4B50
S1132B201A687B6B9A607B6B094ADA607B6B4FF4A3
S1132B30E5621A617B6B074A5A613B6A18462C3777
S1132B40BD465DF8047B7047B0DF0000FCE1000087
S1132B5068BA000044BB000090B593B004AFF860BD
S1132B60B9607A603B603B68002B15D17B6D08220D
S1132B701A70924B1A6A7B6D5A60914B1A6A7B6D7C
S1132B809A607B6D8F4ADA607B6D40F293721A61B2
S1132B907B6D8D4A5A61FEE73B6DB3F1FF3F03D075
S1132BA0FA6C3B6D9A4201D8012300E00023002B0C
S1132BB015D17B6D08221A70804B1A6A7B6D5A609E
S1132BC07F4B1A6A7B6D9A607B6D7E4ADA607B6DFF
S1132BD040F297721A617B6D7B4A5A61FEE7BB6CC7
S1132BE0002B08D0BB6C5A1EBB6C1340002B02D1C7
S1132BF0BB6C032B02D8BB6C002B01D1012300E07A
S1132C000023002B15D17B6D08221A706B4B1A6AB6
S1132C107B6D5A606A4B1A6A7B6D9A607B6D694A58
S1132C20DA607B6D40F29C721A617B6D664A5A6170
S1132C30FEE7BB6C002B01D0BB6C00E00423FB61FE
S1132C40BB681B7803F00203002B10D03B6823F011
S1132C5003033A6802F00302002A01D1002200E0D3
S1132C60042213443B633B6B04333B6304E03B6843
S1132C70042B38BF04233B63FB6C002B00F0DF8084
S1132C80BB681B7803F00103002B02D1FB69BB6214
S1132C9006E07B681B69FA69934238BF1346BB623E
S1132CA0BB6A5A423B6B1A40BB6A591E3B6B0B40D2
S1132CB0002B01D0BB6A00E000231344BB61BB6955
S1132CC0FA6C02FB03F37B623A6BBB69D31A7A6A30
S1132CD013447B62BB681B7803F00103002B11D003
S1132CE07B681B695A427B6A1A407B681B69591EC0
S1132CF07B6A0B40002B02D07B681B6900E0002339
S1132D0013447B627B6D02930023019301230093A0
S1132D10BB6A7A6A7968F868FFF70AFE78637B6DA4
S1132D201B78002B40F0B380BB687A6B1A61BB68D8
S1132D301B7803F00203002B02D17B6B3B620EE095
S1132D403B6823F003033A6802F00302002A01D12E
S1132D50002200E0042213447A6B13443B620123F3
S1132D60FB623EE03B6A796BBA690A441A60BB684D
S1132D70DB69002B2AD0BB68DC69BB681B6A7A6BF1
S1132D807968B868A0470346BB75BB7D012B1DD08D
S1132D907B6D1A221A70094B9A6E7B6D5A60084B30
S1132DA09A6E7B6D9A607B6D064ADA607B6D40F2A9
S1132DB0D9721A617B6D044A5A6169E0B0DF000080
S1132DC0FCE1000068BA00005CBB00003A6ABB6921
S1132DD013443B627A6BBB6913447B63FB6A013324
S1132DE0FB62FA6AFB6C9A42BCD33B6A00221A600B
S1132DF0BB68DB69002B25D0BB68DC69BB681B6A38
S1132E007A6B7968B868A0470346FB75FB7D012B94
S1132E1018D07B6D1A221A701F4B9A6E7B6D5A6004
S1132E201E4B9A6E7B6D9A607B6D1D4ADA607B6DDA
S1132E3040F2E9721A617B6D1A4A5A6128E0BB6854
S1132E4000221A61BB687A685A60BB683A6B9A6060
S1132E50BB68FA69DA60BB683A6D5A61BB680022E4
S1132E609A617B6D00221A700B4B1A687B6D5A6055
S1132E700A4B1A687B6D9A607B6D094ADA607B6D38
S1132E8040F2FC721A617B6D064A5A6100E000BF91
S1132E903C37BD4690BD00BFB0DF0000FCE1000040
S1132EA068BA00005CBB000090B589B004AF7860DC
S1132EB07B68002B01D100F0A1F87B6800221A7016
S1132EC0424B1A687B685A60414B1A687B689A6067
S1132ED07B68404ADA607B68C4221A617B683E4A98
S1132EE05A613E4B5B68002B6DD000210220FFF736
S1132EF0ADF80346FB7300210320FFF7A7F8034650
S1132F001A46FB7B1340FB7300210420FFF79EF855
S1132F1003461A46FB7B1340FB73FB7B012B14D047
S1132F207B6806221A70294B9A697B685A60284B81
S1132F309A697B689A607B68264ADA607B68CA2251
S1132F401A617B68244A5A61FEE7FFF773F8B86098
S1132F507B682C22B9682248FFF7DAFA0246214B33
S1132F601A607B681B78002B28D11E4B1B68181D28
S1132F701A4B1B68194A52687968039102920193AB
S1132F80042300930823BA6801461748FFF7E8FAB8
S1132F907B681B78002B13D1124B1C687A680021C4
S1132FA01248FFF7CDF8A0627B681B78002B09D18B
S1132FB00C4B1B681846FEF7F7FF04E000BF02E065
S1132FC000BF00E000BF1437BD4690BDB0DF000075
S1132FD0FCE1000078BB000050BC0000240000208D
S1132FE000BC00002825002014BC00002CBC0000FC
S1132FF080B500AF00F064F800BF80BD80B400AFBE
S1133000FEE780B582B000AFFDF7FCF878607B681E
S113301018460837BD4680BD80B584B000AF7860DF
S11330207B68002B01D1FFF7E9FF184B1B68FB609D
S1133030FB68002B01D0002200E009227B681A7093
S1133040FB68002B01D0002300E00923104A52F84A
S113305023207B685A60FB68002B01D0002300E02A
S113306009230C4A52F823207B689A607B680A4A39
S1133070DA607B684FF4F9721A617B68074A5A6117
S1133080FB6818461037BD4680BD00BF106B00209A
S1133090B0DF0000FCE1000048E40000BCE40000F4
S11330A080B483B000AF7860044A7B68136000BFCB
S11330B00C37BD465DF8047B704700BF106B0020E1
S11330C080B500AF034B00221A60FDF779F800BF0A
S11330D080BD00BF106B002080B487B000AFF860E3
S11330E0B9607A60FB6803F10473DA00BB681344C7
S11330F09B007B617B697A681A6000BF1C37BD4600
S11331005DF8047B704780B485B000AF78603960A7
S11331107B6803F1C063FB60FB683A681A6000BF18
S11331201437BD465DF8047B704780B485B000AFAA
S1133130786039607B6803F18063FB60FB683A6800
S11331401A6000BF1437BD465DF8047B704780B534
S113315084B000AFF860B9607A60B968F868FFF7C6
S1133160E4FF7968F868FFF7CEFF00BF1037BD466B
S113317080BD000080B582B000AF786039607B68A4
S1133180B3F1804F07D07B68274A934203D0A8212C
S1133190264800F0AFF83B681B693F2B03D9BC21DC
S11331A0224800F0A7F83B68DB683F2B03D9BD2118
S11331B01E4800F09FF83B685B683F2B03D9BF2192
S11331C01A4800F097F83B681B78DB071A463B68FF
S11331D05B681B06134343F400427B681A603B6838
S11331E0DB681B043A68127A1A437B689A623B686C
S11331F01B691B043A68527A1A437B68DA623B689B
S11332009B7A1B0743F0806343F47D437A685360E1
S113321078683B681B7D1A460021FFF75DFF00BFFD
S11332200837BD4680BD00BF00040040D0E4000064
S113323080B582B000AF78600B46FB707B68B3F159
S1133240804F07D07B68094A934203D0FB2108488A
S113325000F050F87B680433FA78FF211846FFF732
S113326076FF00BF0837BD4680BD00BF00040040A4
S1133270D0E4000080B582B000AF78607B68B3F121
S1133280804F08D07B68094A934204D040F2211150
S1133290074800F02FF87B681B6823F001027B6865
S11332A01A6000BF0837BD4680BD00BF000400405F
S11332B0D0E4000080B582B000AF78607B68B3F1E1
S11332C0804F08D07B68094A934204D04FF49A7126
S11332D0074800F00FF87B681B6843F001027B6825
S11332E01A6000BF0837BD4680BD00BF000400401F
S11332F0D0E4000080B483B000AF78603960FEE7AA
S113330080B487B000AFF860B9607A60FB6803F1FD
S11333100473DA00BB6813449B007B617B697A68A1
S11333201A6000BF1C37BD465DF8047B704780B44B
S113333085B000AF786039607B6803F10473DA000C
S11333403B6813449B00FB60FB681B6818461437FA
S1133350BD465DF8047B704780B582B000AF7860ED
S11333607B681F2B04D94FF496710548FFF7C2FF01
S113337001227B6802FA03F318460837BD4680BD74
S1133380E4E4000080B400AF064B1B6803F0400384
S1133390002B01D1012300E000231846BD465DF84F
S11333A0047B70473C300E4080B500AFFFF7EAFF66
S11333B0034683F00103DBB2002B08D100BF1221C6
S11333C00448FFF7B4FF0346002BF8D100E000BF28
S11333D080BD00BF04300E4080B500AFFFF7E4FFAE
S11333E0034B5B681B0C03F00303DBB2184680BD80
S11333F000300E4080B584B000AF78600123FB60DC
S11334007B68124A934204D80023FB600023BB600C
S113341008E07B680E4A934202D80123BB6001E0B6
S11334200223BB60FA6810210A48FFF769FF094BC1
S1133430D3F8003123F08072BB681B06054913439F
S1133440C1F8003100BF1037BD4680BD0048E80117
S11334500090D00300400E4080B483B000AF054B11
S11334601B687B607B6818460C37BD465DF8047B9F
S1133470704700BF2C00002080B582B000AFFCF77D
S1133480BBFF7860064BD3F800311B0A03F01F031F
S113349001337A6802FB03F318460837BD4680BD42
S11334A000400E4080B582B000AF0F4800F068FCC9
S11334B00346FB70FB78072B05D0092B07D1FCF7DB
S11334C09BFF78600BE0FFF7C7FF786007E00023FD
S11334D07B6040F65C510548FFF70CFF00BF7B683A
S11334E018460837BD4680BD06000E00B4E500004E
S11334F080B584B000AF78607B68002B1CD1204875
S113350000F03EFC0346FB7200BFFB7A013B072B35
S113351028D801A252F823F0473500006535000091
S1133520653500005535000065350000653500003F
S11335304D3500005D35000040F67C511148FFF721
S1133540D9FE002317E00023FB6013E0FFF784FF9C
S1133550F8600FE0FCF794FFF8600BE0FFF78CFFD6
S1133560F86007E00023FB6040F693510548FFF73D
S1133570C1FE00BFFB6818461037BD4680BD00BFC2
S1133580B8003200B4E5000080B584B000AF7860C4
S11335903960204B5B6803F04073FB600023BB6021
S11335A012E01D4ABB68DB0013441A793B68DBB2A6
S11335B09A4206D1184ABB6852F833307A689A4264
S11335C006D9BB680133BB60BB68042BE9D900E0B2
S11335D000BFBB68052B07D10323FB6040F69A614B
S11335E00E48FFF787FE05E00B4ABB68DB00134477
S11335F05B79FB60FB681B06FB60064B5B6823F092
S113360040720449FB6813434B6000BF1037BD464A
S113361080BD00BF00000E401CE60000B4E50000C1
S113362080B582B000AF0E4B1B6C002B14BF01237E
S11336300023FB710A4B41F671321A64FCF7D2FE87
S1133640034600211846FFF79FFFFB79002B02D0A9
S1133650034B00221A6400BF0837BD4680BD00BF7B
S113366000000E4080B584B000AF786039600C4B28
S11336701B6C002B14BF01230023FB73084B41F682
S113368071321A6439687868FFF77EFFFB7B002B80
S113369002D0034B00221A6400BF1037BD4680BD20
S11336A000000E4080B487B000AF78600F237B61C8
S11336B07B6803333B617B69FB60FA683B69934237
S11336C028BF1346BB60BB681B07BB60BB681846BA
S11336D01C37BD465DF8047B7047000080B400AF22
S11336E0044B5B6A1B0903F003031846BD465DF8EF
S11336F0047B704700400E4080B483B000AF786014
S1133700074B5B6A23F030027B681B0104491343B7
S11337104B6200BF0C37BD465DF8047B704700BFA9
S113372000400E4090B585B000AF78600023BB60C8
S11337307B683C4A93420BD03B4A934208D03B4AB5
S1133740934205D040F69A713948FFF7D3FD00E063
S113375000BF786800F014FB0346FB607B68314AC5
S113376093420CD0304A934210D0304A934214D141
S1133770304BD3F8803003F00703FB6013E02D4B8C
S1133780D3F8843003F00703FB600CE0294BD3F833
S1133790883003F00703FB6005E040F6C971244854
S11337A0FFF7A8FD00BFFB68042B2ED801A252F836
S11337B023F000BF05380000C9370000D1370000EE
S11337C0E1370000D9370000FCF77CFEB86024E044
S11337D0FCF78AFEB86020E0FCF77DFEB8601CE0D0
S11337E0FCF70AFE0446134BD3F800311B0E03F01A
S11337F0010301331846FFF7AFFD0346B4FBF3F3AF
S1133800BB600AE00023BB6007E00023BB6041F219
S11338101B010748FFF76EFD00BFBB68184614374D
S1133820BD4690BD030020000500240002001E00D8
S1133830B4E5000000400E4080B483B000AF78606F
S11338400A4BD3F8443103F00103002B08D100BF25
S1133850064BD3F840217B681340002BF8D100E0DD
S113386000BF0C37BD465DF8047B704700400E4036
S113387080B400AF00BFBD465DF8047B704780B4E0
S113388000AF00BFBD465DF8047B704780B582B0D1
S113389000AF7860786800F093F903460133184666
S11338A00837BD4680BD000080B586B000AF7860A3
S11338B00B46FB7000233B617B681B0A03F00F037C
S11338C0013B092B32D801A252F823F0F53800004D
S11338D0013900002D3900002D390000FB380000AB
S11338E007390000113900002D3900001B39000090
S11338F0273900001A4B7B611EE01A4B7B611BE0E9
S1133900194B7B6118E0194B7B6101233B6113E088
S1133910174B7B6110233B610EE0164B7B614FF428
S113392080333B6108E0144B7B6105E041F239418F
S11339301248FFF7DFFC10E07B681B0B03F01F034A
S1133940FB603B69002B02D03869FFF775FFFB78F9
S11339501A46F9687869FFF7D3FC1837BD4680BD6D
S113396000400E40B0400E40C0400E40E0400E40CB
S1133970E8400E40F0400E4050410E40B4E50000D7
S113398090B585B000AF78607B6803F47813B3F525
S1133990B01F00F09480B3F5B01F21D8B3F5202FE9
S11339A058D0B3F5202F08D8B3F5003F56D0B3F55F
S11339B0802F40D0002B3AD0EBE0B3F5602F00F01D
S11339C0D080B3F5602F03D8B3F5402F55D0E0E095
S11339D0B3F5801F00F0C980B3F5A01F61D0D8E013
S11339E0B3F5101F00F0B880B3F5101F0BD8B3F572
S11339F0F01F51D0B3F5001F00F08280B3F5D01F43
S1133A0000F08380C5E0B3F5401F00F09180B3F56A
S1133A10401F03D8B3F5381F63D0BAE0B3F5481F8D
S1133A2000F0A780B3F5781F00F0A880B1E0FCF7A0
S1133A30E3FCF860B5E0FCF7DFFCF8605B4BD3F81F
S1133A400C311B0AC3F308030133FA68B2FBF3F326
S1133A50FB60A6E0FCF7D0FCF860A2E0FCF7CCFC2D
S1133A60F860524BD3F808311B0AC3F3080301333F
S1133A70FA68B2FBF3F3FB6093E0FCF7BDFCF8607B
S1133A804A4BD3F814311B0A03F01F030133FA68BD
S1133A90B2FBF3F3FB6084E04548FFF743FEF860B4
S1133AA07FE04448FFF73EFEF860404BD3F83031E6
S1133AB003F00303FA6822FA03F3FB6071E03C4865
S1133AC0FFF730FEF860394BD3F8203103F00F03D1
S1133AD01846FFF741FC0246FB68B3FBF2F3FB60B8
S1133AE05FE03348FFF71EFEF860304BD3F8203117
S1133AF01B0903F00303FA6822FA03F3FB6050E0A6
S1133B002D48FFF70FFEF8604BE02B48FFF70AFE45
S1133B10F860264BD3F828311B0903F00303184639
S1133B20FFF71AFC0246FB68B3FBF2F3FB6038E0D4
S1133B302148FFF7F7FDF8601C4BD3F828311B0A26
S1133B4003F0030304331846FFF706FC0246FB6840
S1133B50B3FBF2F3FB6024E01648FFF7E3FDF860E3
S1133B601FE0FFF79FFCF8601BE0FFF775FCF860AF
S1133B7017E00020FFF7BCFCF86012E0FCF73CFC07
S1133B8004467868FFF782FE0346B4FBF3F3FB6058
S1133B9007E00023FB6041F269510848FFF7AAFBE4
S1133BA000BFFB6818461437BD4690BD00400E4068
S1133BB002001E000500240003002000B4E50000FC
S1133BC080B584B000AF78607B681B0903F00F03F5
S1133BD0BB60BB68013B092B00F2B78001A252F81D
S1133BE023F000BF0D3C00001D3C00002D3C0000F4
S1133BF04D3C00004B3D00004B3D00005D3C00008F
S1133C006D3C0000C53C0000233D0000554BD3F83B
S1133C1000311B0A03F01F03FB609EE0514BD3F8F5
S1133C2014311B0A03F01F03FB6096E04D4BD3F8DD
S1133C3000311B0E03F00103FB60FB6801331846DF
S1133C40FFF78AFB0346013BFB6086E0454BD3F854
S1133C500C311B0AC3F30803FB607EE0414BD3F82D
S1133C6008311B0AC3F30803FB6076E07B683E4A15
S1133C70934203D03D4A93420DD01AE0394BD3F816
S1133C80203103F00F03FB60F868FFF765FB034680
S1133C90013BFB6015E0334BD3F820311B0903F0E3
S1133CA00303FB60F868FFF757FB0346013BFB6027
S1133CB007E00023FB6041F2DD512D48FFF71AFBBA
S1133CC000BF4AE07B682B4A934203D02A4A9342BE
S1133CD00ED01DE0234BD3F828311B0903F0030356
S1133CE0FB60F868FFF738FB0346013BFB6017E015
S1133CF01C4BD3F828311B0A03F00303FB60FB6859
S1133D0004331846FFF728FB0346013BFB6007E03A
S1133D100023FB6041F201611548FFF7EBFA00BF95
S1133D201BE07B68154A934206D10E4BD3F8303121
S1133D3003F00303FB6007E00023FB6041F2106122
S1133D400B48FFF7D7FA00BF07E00023FB6041F2FE
S1133D5035610748FFF7CEFA00BFFB6818461037F5
S1133D60BD4680BD00400E408006160080162E0021
S1133D70B4E5000090171A0090273000A009140041
S1133D8080B584B000AF78600123FB737B6803F0D7
S1133D900F03BB60BB68013B072B00F2C48001A288
S1133DA052F823F0C53D00001B3E00004B3E0000CE
S1133DB0273F0000913E0000C13E0000273F000065
S1133DC0E53E00005E4BD3F8943003F00703023B5A
S1133DD0052B1ED801A252F823F000BF013E0000BB
S1133DE0FB3D0000F53D0000073E0000133E0000CF
S1133DF00D3E00000223FB730EE00323FB730BE074
S1133E000423FB7308E00B23FB7305E00C23FB7313
S1133E1002E00523FB7300BF8DE0494BD3F88030EB
S1133E2003F00703022B06D0042B07D0012B08D183
S1133E300323FB7308E00223FB7305E00A23FB73EF
S1133E4002E00123FB7300BF75E03D4BD3F88430DF
S1133E5003F00703013B032B16D801A252F823F009
S1133E60713E0000773E0000833E00007D3E00006E
S1133E700323FB730BE00223FB7308E00A23FB73A9
S1133E8005E00623FB7302E00123FB7300BF52E04D
S1133E902B4BD3F8883003F00703022B06D0042BF6
S1133EA007D0012B08D10323FB7308E00223FB7323
S1133EB005E00A23FB7302E00123FB7300BF3AE031
S1133EC01F4B1B6F03F00103002B04D0012B05D102
S1133ED00923FB7305E00723FB7302E00123FB7353
S1133EE000BF28E0164BD3F85C3103F03003102BED
S1133EF00CD0102B02D8002B05D010E0202B08D0BA
S1133F00302B09D00BE00123FB730BE00723FB7379
S1133F1008E00423FB7305E00823FB7302E001239C
S1133F20FB7300BF07E00023FB7341F689110548CA
S1133F30FFF7E0F900BFFB7B18461037BD4680BD94
S1133F4000400E40B4E5000080B58AB000AF786050
S1133F500B46FB7003237B62032387F82330002383
S1133F60BB6100237B617B68112B19D1FB78042B87
S1133F7003D1FCF785FA78610BE0FB78052B08D1B7
S1133F8000F086F90246BA4B9A4202D900F080F951
S1133F9078617B69002B03D00021786900F052FD21
S1133FA07B6803F00F033B613B69013B072B00F285
S1133FB0558101A252F823F0D93F0000E3400000EC
S1133FC0154100005D420000F7400000B5410000CB
S1133FD05D420000DF410000FB78023B0A2B49D818
S1133FE001A252F823F000BF154000002140000058
S1133FF02D4000003F400000754000007540000067
S11340007540000075400000694000005140000008
S11340105D40000004237B62002387F823302FE0F7
S113402003237B62012387F8233029E002237B6288
S1134030022387F823308F48FFF7DCF920E00123BF
S11340407B62032387F823308A48FFF7D3F917E00C
S113405005237B62032387F8233011E007237B6267
S1134060062387F823300BE041F64A218248FFF704
S113407041F9F9E041F64F217F48FFF73BF9F3E0BE
S113408097F82330062B06D097F82330012201211C
S1134090184600F08BF9FFF7C3FAFFF7E9FB7B69D9
S11340A0002B01D0FFF780F9744A7B6A5367FCF751
S11340B079F9F860FCF7A0F903461846FFF79AF976
S11340C0FFF78AF903461946F868FFF7CBFA7B69CC
S11340D0002B03D10121002000F0B4FCFFF7CFFB3B
S11340E0C2E0674BBB61FB78062B04D141F68E21FD
S11340F06148FFF7FFF8BB69002B01D0BB6900E002
S1134100604BBB61FB78062B04D141F69E215A48D3
S1134110FFF7F0F8BB69002B01D0BB6900E05A4BF4
S1134120BB61FB78013B092B3AD801A252F823F07A
S1134130594100005F4100006F410000A1410000AF
S1134140A14100007F410000A1410000A141000005
S1134150A14100009B4100000023FB6126E00122F5
S11341600121002000F022F90223FB611EE001225C
S11341700121012000F01AF90123FB6116E0FCF78C
S11341803BF903461846FFF735F9012202213F485F
S1134190FFF7B6F80323FB6108E00423FB6105E0A5
S11341A041F6C9213448FFF7A5F85DE0BB69FA6917
S11341B01A6059E0FB78072B02D0092B04D007E0E2
S11341C02E4B00221A6709E02C4B01221A6705E0E6
S11341D041F653312848FFF78DF845E044E0FB7879
S11341E0013B072B28D801A252F823F00D4200000E
S11341F039420000394200002342000039420000E5
S11342003942000013420000334200000023FB61E6
S113421018E001220121042000F0C8F80123FB6109
S113422010E001220121022000F0C0F80223FB610A
S113423008E00323FB6105E041F6B1310E48FFF7C6
S113424059F811E00D4BD3F85C3123F03002FB69CF
S11342501B010A491343C1F85C3105E041F688416A
S11342600548FFF747F800BF2837BD4680BD00BFAB
S1134270002D31010148E801B4E5000000400E4082
S113428080400E4088400E4084400E40B0400E40B6
S113429080B400AF034B1B681846BD465DF8047B31
S11342A0704700BF0C00002090B585B000AF786067
S11342B01120FFF765FD0346042B04D141F6387144
S11342C03748FFF717F801220021022000F06EF8AA
S11342D07B685B78002B07D17B689B78002B03D12C
S11342E07B68DB78002B04D041F676712C48FFF70D
S11342F001F80023FB607B681B7C012B04D141F691
S11343007B712748FEF7F6FF7B681B7C022B01D1EB
S11343100123FB60234B5B6A23F001022149FB6804
S113432013434B627B681B781A4608211E48FEF72C
S1134330E7FF7B689B88DB027A68527A1146194A48
S11343400B43D362174B1B6B03F07F627B68DB88E4
S1134350DB0213437A68927A1A437B681B7ADB0187
S113436042EA03047B681B7A1846FFF79BF903466D
S11343700C4A234313637B685B7B1A037B689B7B38
S11343801B0113437A68D27B1A437B681B7B1B0493
S1134390044913434B6300BF1437BD4690BD00BFAF
S11343A0B4E5000000400E4024400E4080B588B0C3
S11343B000AF0346FB710B46BB7113467B71FB795F
S11343C0042B3CD801A252F823F000BF294400007A
S11343D017440000F3430000E143000005440000DB
S11343E001237B6102233B610123FB610023BB6149
S11343F02BE004237B6108233B610323FB6102233D
S1134400BB6122E010237B6120233B610523FB6118
S11344100423BB6119E040237B6180233B610723B4
S1134420FB610623BB6110E04FF480737B614FF4A2
S113443000733B610923FB610823BB6105E042F281
S11344408E014548FEF756FF83E0BB79002B64D00C
S11344500023FB73FB79022B1AD1FFF73FF90346C4
S1134460002B15D13D4BDB6B03F48063002B04D18F
S113447042F29D013848FEF73DFF0123FB73384BA0
S11344805B6A03F00103012B02D10120FFF734F929
S1134490334A7B69136600BFB9693248FEF747FFA8
S11344A00346002BF8D07B79002B52D000BFF9696A
S11344B02C48FEF73CFF0346002BF8D0FB79022B77
S11344C047D1FB7B002B44D0254B5B6A03F00103EF
S11344D0012B05D101222021022000F087F903E0FD
S11344E00021022000F028F9022000F03DF8B86015
S11344F0012200210220FFF759FFB968022000F0D1
S113450071F8174A7B69136600BFF9691548FEF70D
S11345100EFF0346002BF8D01BE0114A3B691366DB
S113452000BF0F4BD3F890300121BA6901FA02F2AF
S11345301340002BF5D17B79002B0AD000BF084B28
S1134540D3F890300121FA6901FA02F21340002BEA
S1134550F5D12037BD4680BDB4E5000000300E40E3
S113456000400E4090400E4080B584B000AF03463A
S1134570FB71FB79013B032B23D801A252F823F0F2
S113458091450000B54500009D450000A945000087
S1134590124B1B6AC3F30803FB601AE00F4B1B6941
S11345A003F07F03FB6014E00C4B9B6903F07F0373
S11345B0FB600EE0094BD3F89C30C3F30A03FB60A5
S11345C007E00023FB6042F21A110548FEF792FE51
S11345D000BFFB6818461037BD4680BD00400E4042
S11345E0B4E5000080B584B000AF03463960FB71C8
S11345F0FB79013B032B00F28C8001A252F823F0DB
S113460011460000C5460000514600008B460000DC
S11346103B68B3F5007F04D34FF405514248FEF7DD
S113462069FE3B68C3F308033B6000BF1A213F489F
S1134630FEF77DFE0346002BF8D13D4B1B6A23F4A5
S1134640FF7323F001033A493A6813430B6266E0AF
S11346503B687F2B04D942F24D113348FEF74AFEE2
S11346603B6803F07F033B6000BF18212F48FEF72F
S11346705EFE0346002BF8D12D4B1B6923F07F020D
S11346802B493B6813430B6149E03B687F2B04D9FA
S113469042F268112448FEF72DFE3B6803F07F03C5
S11346A03B6000BF19212148FEF741FE0346002B61
S11346B0F8D11F4B9B6923F07F021D493B681343CC
S11346C08B612CE01A4BD3F8903003F00403002BD9
S11346D004D042F277111448FEF70CFE144B5B6AC7
S11346E023F03003124A43F0100353623B68DB09A2
S11346F003F00F031846FEF7D5FFF8600C4B1A6B56
S11347000C4B13403A681A430949FB6813430B6383
S113471005E042F291110448FEF7ECFD00BF00BF32
S11347201037BD4680BD00BFB4E5000040410E40D7
S113473000400E4000F8FF0F80B584B000AF034680
S11347400A46FB711346BB71FB79022B04D042F27B
S1134750A9112348FEF7CEFDFEF7C0FF0346002B48
S113476003D14FF44003FB601BE0BB79202B04D042
S1134770302B0AD0002B04D00BE04FF40003FB6075
S11347800FE04FF44003FB600BE04FF44003FB6089
S113479007E0144BFB6042F2C4111148FEF7AAFD76
S11347A000BF00BF104BD3F89020FB681340FA6899
S11347B09A42F7D1FB6803F48003002B0AD00A4B1A
S11347C0D3F8A03003F48063002B14BF012300232B
S11347D0DBB200E0012318461037BD4680BD00BFA0
S11347E0B4E50000FF33E10700400E4080B582B01D
S11347F000AF0346FB710B46BB7113467B71FB791B
S1134800022B15D1BB79002B07D00F4B4FF48062DC
S1134810C3F8A8200C4ABB7953667B79002B0DD0D2
S1134820BA79FB7911461846FFF786FF034607E07D
S113483042F2FA110548FEF75DFD00E000BF0123D6
S113484018460837BD4680BD00400E40B4E5000060
S113485080B483B000AFEFF310833B603B687B60B0
S113486072B67B6818460C37BD465DF8047B70470A
S113487080B483B000AF78607B68002B00D162B64F
S113488000BF0C37BD465DF8047B704780B483B02D
S113489000AFEFF310833B603B687B6072B67B68CC
S11348A018460C37BD465DF8047B704780B483B06E
S11348B000AF78607B68002B00D162B600BF0C3774
S11348C0BD465DF8047B704780B400AF064B5B685F
S11348D0C3F30803002B14BF01230023DBB21846E3
S11348E0BD465DF8047B704700ED00E080B487B0FE
S11348F000AFF860B9607A60FB6803F10473DA0012
S1134900BB6813449B007B617B697A681A6000BFB3
S11349101C37BD465DF8047B704780B485B000AF9A
S1134920786039607B6803F10473DA003B681344F0
S11349309B00FB60FB681B6818461437BD465DF896
S1134940047B704780B400AF064B1B6803F0400340
S1134950002B01D1012300E000231846BD465DF879
S1134960047B70473C300E4080B500AFFFF7EAFF90
S1134970034683F00103DBB2002B08D100BF1221F0
S11349800448FFF7CAFF0346002BF8D100E000BF3C
S113499080BD00BF04300E4080B500AFFFF7E4FFD8
S11349A0034B5B681B0C03F00303DBB2184680BDAA
S11349B000300E4080B483B000AF7860044A7B6856
S11349C0D36200BF0C37BD465DF8047B704700BF5F
S11349D000300E4080B400AF034B5B6A1846BD46FE
S11349E05DF8047B704700BF00300E4080B400AF18
S11349F0034B00225A6300BFBD465DF8047B704739
S1134A0000300E4080B400AF044B4AF6E8525A63BB
S1134A1000BFBD465DF8047B704700BF00300E4008
S1134A2080B483B000AF0346FB71FB79C3F102038A
S1134A30102202FA03F318460C37BD465DF8047BD6
S1134A407047000080B584B000AF78600B46FB70FF
S1134A50FFF778FF034683F00103DBB2002B28D174
S1134A607B68002B0FD1154BD3F800311B0A03F0E0
S1134A701F030133BB60FBF7BFFC0246BB6802FBAC
S1134A8003F3FB6001E07B68FB600D4B1B78002B9C
S1134A9009D0FB680B4A934205D8FB7819460220DB
S1134AA000F012F806E0FB781946002000F00CF83C
S1134AB000E000BF1037BD4680BD00BF00400E407F
S1134AC034250020002D310190B587B000AF034696
S1134AD00A46FB711346BB71FFF734FF034683F0AC
S1134AE00103DBB2002B3AD1FFF756FF03461A4607
S1134AF0FB79934235D01D4BD3F800311B0A03F0E8
S1134B001F0301337B61FBF777FC38613B697A69EA
S1134B1002FB03F3FB60FB79022B0CD1FB68144A04
S1134B20934204D940F2E1511248FEF7E3FB02211B
S1134B303869FEF797FD104CFB791846FFF770FFB4
S1134B4003462361BB79002B01D0FFF70DFFFB79EE
S1134B50002B07D100213869FEF784FD02E000BF75
S1134B6000E000BF1C37BD4690BD00BF00400E40B2
S1134B70002D310144E6000000300E4080B582B0C3
S1134B8000AF78600E4B1B6823F440727B685B783F
S1134B901B020B4913430B607B685B78022B0AD121
S1134BA0084B5B6A03F00053002B04D040F21D61F4
S1134BB00548FEF79FFB00BF0837BD4680BD00BF18
S1134BC000300E4000400E4044E6000080B400AFC8
S1134BD001231846BD465DF8047B704780B582B05A
S1134BE000AF0C4BDB6E0B4A43F08073D36600219D
S1134BF00948FFF792FE78607B68002B03D00420FD
S1134C0000F04EFD02E0002000F04AFD00BF08372E
S1134C10BD4680BD00300E404C300E4080B58AB099
S1134C2000AF01237B627B6A1B053B62404BDB6C5C
S1134C301B0A03F00F03FB613E4B1B881A463D4BD6
S1134C401B8828335B08134403F12801FB695A1CB1
S1134C5013469B001344B1FBF3F3013BBB61BB69F7
S1134C607B6107233B613A697B69934228BF134602
S1134C70BB61BB691B06BB61BB6923F0E063002B0E
S1134C8004D040F2FF712C48FEF734FB3B6A23F456
S1134C90E003002B04D04FF400612748FEF72AFB01
S1134CA0234BDB6C23F0EE62B9693B6A0B4320496A
S1134CB01343CB64214BB3F90030002B33DB1F4B80
S1134CC0B3F90030FB81FA89FB8928335B0813446C
S1134CD003F12802FB6901335900FB6901335B08C6
S1134CE00B44B2FBF3F3BB60BB687B6007233B6000
S1134CF03A687B68934228BF1346BB60BB681B01BC
S1134D00BB60BB6823F07003002B04D040F618018D
S1134D100948FEF7EFFA064B1B6D23F070020449B5
S1134D20BB6813430B6500BF2837BD4680BD00BF79
S1134D3000300E402C25002044E6000030250020E1
S1134D4080B483B000AF78600B467B807B689AB2F6
S1134D50054B1A80054A7B88138000BF0C37BD467B
S1134D605DF8047B704700BF2C250020302500200F
S1134D7080B582B000AF0346FB71FB79002B02D0F3
S1134D80012B04D007E0094B094A9A6509E0074B57
S1134D90084A9A6505E040F644010748FEF7AAFA76
S1134DA000BF00BF0837BD4680BD00BF00300E40C5
S1134DB077402057372110B744E6000080B584B00F
S1134DC000AF0346FB710B46BB7113467B71334B3B
S1134DD0D3F88031FB60BB79032B1DD801A252F8B4
S1134DE023F000BFF54D0000FD4D0000074E00000C
S1134DF0114E0000FB68DBB2FB6014E0FB681B0A89
S1134E00DBB2FB600FE0FB681B0CDBB2FB600AE06B
S1134E10FB681B0EFB6006E040F688012048FEF7A5
S1134E2069FA002336E07B79002B16D1FB681B035B
S1134E30FB60FB6823F47043002B06D040F693011B
S1134E401748FEF757FA002324E0164BDB6E23F4D1
S1134E5070421449FB681343CB667B79012B18D14C
S1134E60FB681B03FB60FB6823F47043002B06D034
S1134E7040F69F010A48FEF73DFA00230AE0094B79
S1134E80D3F8EC3023F470420649FB681343C1F8AD
S1134E90EC30012318461037BD4680BDB081E00FC9
S1134EA044E6000000300E4080B588B000AFF860E2
S1134EB0B96011461A460B46FB711346BB710023B9
S1134EC0FB610023BB61BB791B02FA79002A01D084
S1134ED0012200E0002213437B617B6940F201124E
S1134EE093422AD0B3F5817F07D2012B19D0012B2D
S1134EF047D3B3F5807F50D073E040F20122934250
S1134F0027D040F20122934203D8B3F5007F50D05A
S1134F1067E0B3F5407F58D040F20132934224D089
S1134F205FE0384BD3F87431FB61FB691B0ADBB2D9
S1134F30BB61FB69DBB2FB6159E0324BD3F87431DE
S1134F40FB61FB691B0EBB61FB691B0CDBB2FB61E4
S1134F504DE02C4BD3F87831FB61FB691B0ADBB2C3
S1134F60BB61FB69DBB2FB6141E0264BD3F87831CE
S1134F70FB61FB691B0EBB61FB691B0CDBB2FB61B4
S1134F8035E0204BD3F86C31FB61FB691B0ADBB2C3
S1134F90BB61FB69DBB2FB6129E01A4BD3F86C31CE
S1134FA0FB61FB691B0EBB61FB691B0CDBB2FB6184
S1134FB01DE0144BD3F87031FB61FB691B0ADBB2B3
S1134FC0BB61FB69DBB2FB6111E00E4BD3F87031BE
S1134FD0FB61FB691B0EBB61FB691B0CDBB2FB6154
S1134FE005E040F604110848FEF784F900BFFB68A9
S1134FF0FA691A60BB68BA691A6000BF2037BD46F7
S113500080BD00BFB081E00F44E6000080B584B0ED
S113501000AF0346FB713E4B5B6B012B0CBF0123BE
S11350200023FB73FFF7EEFC00BF394B9B6F03F0CB
S11350300103002BF9D1364B1B6C03F00303BB6057
S1135040BB68002B04D001220D213248FFF74EFC2F
S1135050BB68DBB2FA799A4208D1FB79002B53D1B1
S113506000220D212B48FFF741FC4DE0BB68032BC8
S113507002D0BB68002B20D1FB79022B02D0FB7934
S1135080012B1AD14FF40020FFF794FC00BF204BF2
S11350909B6F03F00103002BF9D11D4B1B6C23F014
S11350A003031B4A43F00103136400BFFFF792FCA0
S11350B0034603F40023002BF8D000BF144B9B6F6E
S11350C003F00103002BF9D1114B1B6C23F00302F5
S11350D0FB790F4913430B6400BF0D4B9B6F03F027
S11350E00103002BF9D1FB79002B14BF012300230A
S11350F0DBB21A460D210748FFF7F8FBFB7B002BB8
S113510003D0FFF773FC00E000BF1037BD4680BD3D
S113511000300E4054300E4080B584B000AF78604B
S11351206B4B02229A636A4B9B6B03F00F03022BB7
S113513006D040F6A6116748FEF7DCF80023C3E06A
S1135140FFF744FD7B681B89C82B04D94FF41B610E
S11351506048FEF7CFF87B689A887B681B899A427F
S113516004D940F6B1115B48FEF7C4F87B68B3F983
S11351700C30C82B04DD40F6B2115648FEF7BAF8DD
S11351807B685B78012B09D17B689B88C82B12D97B
S113519040F6B6114F48FEF7ADF80CE07B685B783B
S11351A0022B08D17B689B880A2B04D940F6BB11DB
S11351B04848FEF79FF87B68DB8842F210729342FE
S11351C004D940F6C3114348FEF794F87B68DB88A2
S11351D04A2B02D80023FB6015E07B68DB88B3F51B
S11351E0FA7F03D24FF08053FB600CE07B68DB88CE
S11351F040F6C312934203D84FF00053FB6002E021
S11352004FF04053FB60324BDB6C23F0405323F0F0
S113521001037A68B2F90C20002A01DB012100E0C5
S11352200021FA680A432A491343CB64284BD3F874
S1135230EC30274A43F44073C2F8EC307B689A8818
S1135240254B1A80FFF7CAFC7B681B891A467B68CA
S1135250B3F90C3019461046FFF772FD7B689B8842
S1135260184600F0A9F97B689B7B1846FFF780FD80
S11352707B685B8801220121184600F031F803465F
S113528083F00103DBB2002B06D040F6FA1111487B
S1135290FEF730F8002317E00D4BDB6B0C4A43F4A8
S11352A08063D3637B685B781846FFF7AFFE7B6847
S11352B09B7A202B01D1012300E000231A4605210B
S11352C00648FFF713FB012318461037BD4680BD7F
S11352D000300E4044E600002E2500203C300E40F5
S11352E090B595B000AF78600B46FB701346BB7069
S11352F00023FB6400237B6407F1240300221A606B
S11353005A609A6007F1180300221A605A609A6082
S113531007F10C0300221A605A609A6007F108032F
S113532000210A461A800A469A707B68B3F5E16F39
S113533006D37B6840F6B832934201D8012300E0DB
S1135340002387F8433097F8433003F0010387F8CC
S1135350433097F8433083F00103DBB2002B06D0CF
S113536040F63F219148FDF7C5FF002319E17B6812
S1135370B3F5E16F8CBF0123002387F8423097F81F
S11353804230002B0AD04FF4E163FB6440F6B8339B
S11353907B647A6CFB6CD31ABB6409E04FF49663AC
S11353A0FB644FF4E1637B647A6CFB6CD31ABB64DB
S11353B097F84230002B0BD07D4BD3F868313B6219
S11353C03B6A1B0E7B613B6A1B0CDBB23B620AE04F
S11353D0774BD3F868313B623B6A1B0ADBB27B61D3
S11353E03B6ADBB23B62734BDB6C1B0FDBB203F03B
S11353F00303DBB23B723B7A97F8422007F10C01BE
S113540007F11800FFF750FD6A4BD3F8EC301B0A84
S1135410DBB203F00303DBB27B727C7A97F84220A1
S113542007F10C03191D07F11803181D2346FFF794
S11354303BFD7A68FB6CD31A79693A6A8A1A02FBD3
S113544003F2BB6CB2FBF3F3FB62FA6A3B6A1344EC
S1135450FB627A68FB6CD31AF968BA698A1A02FB90
S113546003F2BB6CB2FBF3F37B627A6ABB6913444D
S11354707B627A68FB6CD31A3969FA698A1A02FB6F
S113548003F2BB6CB2FBF3F3BB62BA6AFB6913446D
S1135490BB62FA6A7B699A4213D8FA6A3B6A9A42F7
S11354A00FD3BA6A3B699A420BD8BA6AFB699A422B
S11354B007D37A6AFB689A4203D87A6ABB699A422C
S11354C006D240F68D213948FDF714FF002368E029
S11354D0BB78002B12D0374BDB6D23F4FE4323F053
S11354E00203FA6A1202134397F84220002A01D0F9
S11354F0022200E000222F491343CB65FB78002BE6
S11355004ED0397A97F8423000221846FFF756FCFD
S1135510034683F00103DBB2002B06D040F69C2146
S11355202248FDF7E7FE00233BE0797A97F8423002
S113553001221846FFF742FC034683F00103DBB265
S1135540002B06D040F6A4211848FDF7D3FE002313
S113555027E07B6AFB63BB6ABB63BA6BFB6B93425A
S113556038BF13467B627B6A7B63E7233B633A6BFA
S11355707B6B934228BF13467B620E4B5B6E23F416
S1135580FF7323F001037A6A5200134397F8422011
S1135590002A01D0012200E00022064913434B6691
S11355A0012318465437BD4690BD00BF44E60000B1
S11355B0B081E00F00300E4080B584B000AF786059
S11355C00023FB60344B1B6F03F00703BB60324BBB
S11355D0DB6C03F00103002B14D0BB68012B11D941
S11355E07B68132B02D80423FB603DE07B68132BFC
S11355F005D97B68272B02D80823FB6034E01023ED
S1135600FB6031E0244BDB6C03F00103002B14D16D
S1135610BB68012B11D87B68092B02D80423FB60DB
S113562022E07B68092B05D97B68132B02D8082359
S1135630FB6019E01023FB6016E0174BDB6C03F0F2
S11356400103002B0BD0BB68012B08D87B68272BE8
S113565002D80823FB6007E01023FB6004E040F657
S1135660E2210E48FDF746FEFB68013BFB60FB6848
S11356701A02FB681B031343FB60074BDB6C23F428
S11356807F420549FB681343CB64FFF7C7FA00BFA9
S11356901037BD4680BD00BF00300E4044E6000018
S11356A080B584B000AF0346FB7100211148FFF7B9
S11356B034F9F860FB68002B02D1FB79012B07D980
S11356C0FB68002B04D140F601310B48FDF712FEB4
S11356D00A4B1B6F23F00702FB79084913430B673E
S11356E0074B1B881846FFF767FF00BF1037BD46FE
S11356F080BD00BF4C300E4044E6000000300E4038
S11357002E25002080B485B000AF786039607B68B6
S113571003F1C063FB60FB683A681A6000BF14378A
S1135720BD465DF8047B704780B485B000AF7860F7
S113573039607B6803F18063FB60FB683A681A6038
S113574000BF1437BD465DF8047B704780B584B054
S113575000AFF860B9607A60B968F868FFF7E4FFF1
S11357607968F868FFF7CEFF00BF1037BD4680BDEB
S113577080B582B000AF03463960FB71FB79002B22
S113578038D0FB79012B32D0FB79022B2CD0FB795A
S1135790032B26D0FB79042B21D0FB79052B1BD0BE
S11357A0FB79062B16D0FB79072B11D0FB79082B3C
S11357B00CD0FB79092B06D0FB790A2B01D10723E6
S11357C01AE0002318E04FF4404315E00F2313E0E0
S11357D0002311E000230FE04FF6FF730CE00023D9
S11357E00AE04FF47F4307E040F6FF7304E04FF60E
S11357F0C07301E040F2FF333A68134103F0010340
S1135800002B04D14FF477710C48FDF773FDFA793E
S113581013465B0013441B010C3303F1804303F56F
S1135820204301213A6801FA02F211461846FFF7B3
S11358307BFF00BF0837BD4680BD00BFACE600005B
S113584080B582B000AF03463960FB71FB79002B51
S113585038D0FB79012B32D0FB79022B2CD0FB7989
S1135860032B26D0FB79042B21D0FB79052B1BD0ED
S1135870FB79062B16D0FB79072B11D0FB79082B6B
S11358800CD0FB79092B06D0FB790A2B01D1072315
S11358901AE0002318E04FF4404315E00F2313E00F
S11358A0002311E000230FE04FF6FF730CE0002308
S11358B00AE04FF47F4307E040F6FF7304E04FF63D
S11358C0C07301E040F2FF333A68134103F001036F
S11358D0002B04D140F20B410C48FDF70BFDFA7983
S11358E013465B0013441B010C3303F1804303F59F
S11358F0204301213A6801FA02F211461846FFF7E3
S113590001FF00BF0837BD4680BD00BFACE6000004
S113591080B582B000AF03463960FB71FB79002B80
S11359201DD0FB79012B1AD0FB79022B17D0FB7900
S1135930032B14D0FB79042B16D0FB79052B0ED046
S1135940FB79062B10D0FB79072B0DD0FB79082BA4
S113595005D0FB79092B02D0FB790A2B04D13B68D3
S113596023F00113002B03D082210B48FDF7C2FC66
S1135970FA7913465B0013441B0103F1804303F5DA
S113598020433A684FF001111846FFF7DFFE00BFCD
S11359900837BD4680BD00BF14E7000080B584B061
S11359A000AFB9607B600346FB731346BB73FB7B9C
S11359B0002B38D0FB7B012B32D0FB7B022B2CD06D
S11359C0FB7B032B26D0FB7B042B21D0FB7B052BFD
S11359D01BD0FB7B062B16D0FB7B072B11D0FB7B4C
S11359E0082B0CD0FB7B092B06D0FB7B0A2B01D1A7
S11359F007231AE0002318E04FF4404315E00F2377
S1135A0013E0002311E000230FE04FF6FF730CE0D6
S1135A1000230AE04FF47F4307E040F6FF7304E0FD
S1135A204FF6C07301E040F2FF33BA68134103F04C
S1135A300103002B04D140F21B113948FDF75AFC35
S1135A40BB7B002B0DD07B68002B05D0FB7BB9689A
S1135A501846FFF7F5FE04E0FB7BB9681846FFF72C
S1135A6087FEBB68072B20D82E49FA7B13465B00C0
S1135A7013441B010B4404331A68BB689B000F21B9
S1135A8001FA03F3DB431340B97BBA68920001FACD
S1135A9002F211462348FA7B194313465B00134470
S1135AA01B0103440433196025E01E49FA7B1346A5
S1135AB05B0013441B010B4408331A68BB6803F1F1
S1135AC08043083B9B000F2101FA03F3DB4302EA06
S1135AD00301BA7BBB6803F18043083B9B0002FAD5
S1135AE003F31048FA7B194313465B0013441B016C
S1135AF0034408331960BB7B002B0DD17B68002B5A
S1135B0005D0FB7BB9681846FFF79AFE04E0FB7BDF
S1135B10B9681846FFF72CFE00BF1037BD4680BD9C
S1135B2014E7000000A0004080B487B000AFF86024
S1135B30B9607A60FB6803F10473DA00BB6813444C
S1135B409B007B617B697A681A6000BF1C37BD4685
S1135B505DF8047B7047000080B582B000AF7860C8
S1135B6039607B68022B03D951211848FDF7C2FB29
S1135B703B685B791F2B03D956211448FDF7BAFB08
S1135B803B681B781A463B685B789B001A433B686A
S1135B909B789B011A433B68DB781B011A433B68E3
S1135BA01B79DB021A433B685B791B031A433B688E
S1135BB09B795B0406491A437B6804331B010B443D
S1135BC01A6000BF0837BD4680BD00BF7CE70000F7
S1135BD00020044080B582B000AF0346FB71FB791E
S1135BE01A4600210348FFF79FFF00BF0837BD4650
S1135BF080BD00BF0020044080B483B000AF786053
S1135C007B681B78002B01D0012200E000227B6816
S1135C105B78002B01D0042300E0002313437A684F
S1135C209278002A01D0102200E0002213437A68FF
S1135C30D278002A01D0202200E000221A437B6897
S1135C401B791B021A437B685B791B0313437A6835
S1135C509279002A02D04FF4004200E000221A4355
S1135C607B68DB791B0413437A68127A002A02D01A
S1135C704FF4003200E00022044913430B6000BFDC
S1135C800C37BD465DF8047B704700BF002004401C
S1135C9080B400AF00BFBD465DF8047B70470000D0
S1135CA080B586B000AF78607B68002B01D1FDF72A
S1135CB0A5F9884B5B68002B2CD0864B1B68002B06
S1135CC010D1844B196B834B5B689A007B688248C4
S1135CD0FCF71EFC0246814B1A607B681B78002B84
S1135CE004D00AE27B4B1B687C4A13607B4B1B6825
